:020000040800F2
:1000000000500020911F0008A9040008AB0400085C
:10001000AD040008AF040008B104000800000000AF
:10002000000000000000000000000000911D00081A
:10003000B304000800000000311E0008B5040008E9
:10004000D91F0008D91F0008D91F0008D91F0008B0
:10005000D91F0008D91F0008D91F0008D91F0008A0
:10006000D91F0008D91F0008D91F0008D91F000890
:10007000D91F0008D91F0008D91F0008D91F000880
:10008000D91F0008D91F0008D91F0008D91F000870
:10009000D91F0008D91F0008D91F0008D91F000860
:1000A000D91F0008D91F0008D91F0008D91F000850
:1000B000D91F0008D91F0008D91F0008D91F000840
:1000C000D91F0008D91F0008D91F0008D91F000830
:1000D000D91F0008D91F0008D91F0008D91F000820
:1000E000D91F0008D91F0008D91F00080000000010
:1000F0000000000000000000000000000000000000
:0C01000000000000000000005FF808F1A3
:1001100010B5054C237833B9044B13B10448AFF341
:1001200000800123237010BD10000020000000009B
:100130002420000808B5034B1BB103490348AFF363
:10014000008008BD000000001400002024200008EA
:1001500072B6FEE700B591B0002309930B930C93A0
:1001600001930293039304930593012106914FF4A5
:100170008032079208930A9102230D930E924FF456
:10018000E0130F9306A800F02BFA80B90F23019318
:1001900002210291002303934FF48062049205939D
:1001A00001A800F05BFC20B911B05DF804FBFFF77B
:1001B000CFFFFFF7CDFF08B500F0D8F9FFF7CAFF72
:1001C00000F00CF800F06CF800F0BAF800F016F946
:1001D00000F050F801F048FCFEE7000030B589B0AF
:1001E00000240494059406940794174B9A6942F0EE
:1001F00020029A619A6902F020020192019A9A699A
:1002000042F004029A619A6902F004020292029A90
:100210009A6942F008029A619B6903F0080303930C
:10022000039B0A4D22463821284600F003FE38235E
:1002300004930123059306940223079304A92846F7
:1002400000F0E8FC09B030BD001002400008014099
:1002500008B5012001F042FCFBE70000034B0360FE
:10026000034B0B6080231360704700BF2C020020FB
:100270002C00002030B589B001AC074D0FCD0FC464
:1002800095E8070084E80700002101A801F0F1FBD0
:10029000024B186009B030BD3C200008C80F002098
:1002A00008B50B480B4B03600B4B43600023836086
:1002B000C3604FF48042026143618361C3610362A2
:1002C00000F01AFE00B908BDFFF742FFFBE700BFD0
:1002D000CC0F002000540040A086010010B586B06D
:1002E000002302930393049305930268114B9A42EF
:1002F00001D006B010BD104CA36943F00803A36100
:10030000A36903F008030093009BC0230293122308
:1003100003930323059302A9084800F07BFCE369DB
:1003200043F40013E361E36903F400130193019BB9
:10033000DFE700BF0054004000100240000C014005
:1003400008B50E480E4B03604FF4827343600023E0
:100350008360C360036143614FF4007282612822AD
:10036000C2610362436283620A23C36200F0A2FE99
:1003700000B908BDFFF7ECFEFBE700BF201000202E
:100380000038004010B586B0002302930393049315
:1003900005930268174B9A4201D006B010BD03F5D1
:1003A000EC33DA6942F48042DA61DA6902F48042BD
:1003B0000092009A9A6942F008029A619B6903F0E0
:1003C00008030193019B4FF42043029302230393FC
:1003D00003230593084C02A9204600F01BFC4FF4B0
:1003E0008043029300230393049302A9204600F064
:1003F00011FCD2E700380040000C014008B50A4863
:100400000A4B03604FF4E133436000238360C36011
:1004100003610C2242618361C36100F0EFFE00B909
:1004200008BDFFF795FEFBE778100020003801407B
:1004300010B586B0002302930393049305930268DA
:10044000174B9A4201D006B010BD03F558439A6984
:1004500042F480429A619A6902F480420092009AC2
:100460009A6942F004029A619B6903F004030193C4
:10047000019B4FF40073029302230393032305931C
:10048000084C02A9204600F0C5FB4FF4806302939C
:1004900000230393049302A9204600F0BBFBD2E79C
:1004A0000038014000080140FEE7FEE7FEE7FEE7F6
:1004B000FEE7704708B500F06BF801F0BFFA0128BD
:1004C00000D108BD01F0D6FCFBE7000000B583B009
:1004D000114B9A6942F001029A619A6902F0010295
:1004E0000092009ADA6942F08052DA61DB6903F027
:1004F00080530193019B00220F216FF0010000F057
:10050000B1FC064A536823F0E06343F08063536014
:1005100003B05DF804FB00BF001002400000014082
:1005200010B504460E4B18784FF47A73B3FBF0F312
:100530000C4A1068B0FBF3F000F0C8FC68B90F2C4F
:1005400001D901200AE0002221464FF0FF3000F0DF
:1005500089FC054B1C60002000E0012010BD00BF9D
:1005600000000020080000200400002008B5074A11
:10057000136843F010031360032000F061FC0F20A8
:10058000FFF7CEFFFFF7A2FF002008BD00200240CA
:10059000034A1168034B1B780B441360704700BF7C
:1005A000BC10002000000020014B1868704700BFFD
:1005B000BC10002082B0084B1B68084AA2FB032332
:1005C0005B0A00FB03F3019300BF019B5A1E0192DB
:1005D000002BF9D102B0704708000020D34D621003
:1005E000002800F0F18170B582B00446036813F072
:1005F000010F2CD0AA4B5B6803F00C03042B1DD019
:10060000A74B5B6803F00C03082B12D06368B3F5AB
:10061000803F41D0002B55D103F1804303F50433D3
:100620001A6822F480321A601A6822F480221A6052
:1006300037E09B4B5B6813F4803FE7D0984B1B6817
:1006400013F4003F03D06368002B00F0BF812368E0
:1006500013F0020F75D0924B5B6813F00C0F5FD054
:100660008F4B5B6803F00C03082B54D02369002BDD
:1006700000F089808B4B01221A60FFF795FF054639
:10068000874B1B6813F0020F74D1FFF78DFF401BDF
:100690000228F5D903209EE1814A136843F4803390
:1006A0001360636843B3FFF77FFF05467C4B1B680D
:1006B00013F4003FCBD1FFF777FF401B6428F5D937
:1006C000032088E1B3F5A02F09D0754B1A6822F4F6
:1006D00080321A601A6822F480221A60E1E703F17E
:1006E0008043A3F53C331A6842F480221A601A68EA
:1006F00042F480321A60D4E7FFF756FF0546684B94
:100700001B6813F4003FA2D0FFF74EFF401B642884
:10071000F5D903205FE1624B5B6813F4803FA5D1FC
:100720005F4B1B6813F0020F03D02369012B40F0CD
:100730004F815B4A136823F0F803616943EAC10300
:100740001360236813F0080F32D0A369002B45D043
:10075000554B01221A60FFF727FF0546504B5B6A95
:1007600013F0020F21D1FFF71FFF401B0228F5D91C
:10077000032030E14A4A136823F0F803616943EA31
:10078000C1031360DDE7474B00221A60FFF70CFF3F
:100790000546434B1B6813F0020FD2D0FFF704FF4E
:1007A000401B0228F5D9032015E10120FFF702FFC5
:1007B000236813F0040F00F09780394BDB6913F0C6
:1007C000805F1DD1364BDA6942F08052DA61DB6915
:1007D00003F080530193019B012512E0324B00226C
:1007E0001A60FFF7E1FE05462D4B5B6A13F0020F1E
:1007F000DED0FFF7D9FE401B0228F5D90320EAE03E
:1008000000252A4B1B6813F4807F11D0E368012B6D
:1008100022D0002B38D103F1804303F504331A6A48
:1008200022F001021A621A6A22F004021A6218E027
:100830001E4A136843F480731360FFF7B5FE064643
:100840001A4B1B6813F4807FE0D1FFF7ADFE801BCD
:100850006428F5D90320BEE0114A136A43F001036E
:100860001362E36873B3FFF79FFE06460C4B1B6AE7
:1008700013F0020F37D1FFF797FE801B41F2883348
:100880009842F3D90320A6E0052B11D0044B1A6A35
:1008900022F001021A621A6A22F004021A62E0E7E8
:1008A00000100240000042428004424200700040BA
:1008B0004D4B1A6A42F004021A621A6A42F00102AF
:1008C0001A62CEE7FFF770FE0646474B1B6A13F02D
:1008D000020F08D0FFF768FE801B41F28833984270
:1008E000F3D9032077E0E5B9E369002B72D03E4AE3
:1008F000526802F00C02082A56D0022B17D03B4B4C
:1009000000221A60FFF750FE0446374B1B6813F0B5
:10091000007F47D0FFF748FE001B0228F5D90320CF
:1009200059E0314AD36923F08053D361DCE72F4B80
:1009300000221A60FFF738FE05462B4B1B6813F0A8
:10094000007F06D0FFF730FE401B0228F5D90320B8
:1009500041E0236AB3F5803F1AD023494B6823F462
:100960007413226A606A024313434B601F4B0122D7
:100970001A60FFF719FE04461B4B1B6813F0007F3B
:100980000ED1FFF711FE001B0228F5D9032022E04B
:10099000154A536823F40033A1680B435360DCE726
:1009A000002018E0002016E0012B16D00E4B5B68EB
:1009B00003F48031226A914211D103F47013626A08
:1009C00093420ED1002006E001207047012002E092
:1009D000012000E0002002B070BD0120FBE70120F3
:1009E000F9E70120F7E700BF001002406000424233
:1009F00086B0164B0FCB0DF1180C0CE90F0040F22E
:100A00000123ADF80430124B5B6803F00C02082A96
:100A100002D0104806B07047C3F38342624412F814
:100A2000102C13F4803F0CD0094B5B68C3F3404398
:100A3000634413F8143C074800FB02F0B0FBF3F0EA
:100A4000E8E7054800FB02F0E4E700BF6420000887
:100A50000010024000127A0000093D00002800F05A
:100A6000A08070B50D460446524B1B6803F0070387
:100A70008B420BD24F4A136823F007030B431360DA
:100A8000136803F007038B4240F08D80236813F056
:100A9000020F17D013F0040F04D0474A536843F4F1
:100AA000E0635360236813F0080F04D0424A536890
:100AB00043F460535360404A536823F0F003A16845
:100AC0000B435360236813F0010F31D06368012B8F
:100AD00020D0022B25D0384A126812F0020F64D0C1
:100AE00035494A6822F0030213434B60FFF75CFD6F
:100AF0000646314B5B6803F00C036268B3EB820F70
:100B000016D0FFF751FD801B41F288339842F0D98F
:100B1000032045E0284A126812F4003FE0D101208A
:100B20003EE0254A126812F0007FD9D1012037E05B
:100B3000204B1B6803F00703AB420AD91D4A136818
:100B400023F007032B431360136803F00703AB4242
:100B50002DD1236813F0040F06D0174A536823F4ED
:100B6000E063E1680B435360236813F0080F07D07C
:100B7000114A536823F46053216943EAC103536067
:100B8000FFF736FF0C4B5B68C3F303130B4AD35CD0
:100B9000D8400B4B18600B4B1868FFF7C1FC0020C6
:100BA00070BD012070470120FAE70120F8E701201D
:100BB000F6E700BF00200240001002407820000845
:100BC0000800002004000020014B1868704700BF97
:100BD0000800002008B5FFF7F7FF044B5B68C3F37C
:100BE0000223034AD35CD84008BD00BF0010024076
:100BF0008820000808B5FFF7E7FF044B5B68C3F3E4
:100C0000C223034AD35CD84008BD00BF0010024095
:100C100088200008F0B482B000252C46A3E07F4F66
:100C2000BB4210D007D97E4FBB420CD007F58037AE
:100C3000BB4208D013E0A7F58017BB4203D007F5ED
:100C40007027BB4207D18B68002B58D0012B51D0A5
:100C50004261082503E0A7F58017BB42F3D0FF2EC1
:100C60004FD88446FF2E4FD8A200DCF800300F2763
:100C7000974023EA070305FA02F21343CCF8003049
:100C80004B6813F0805F6DD0664B9A6942F00102A9
:100C90009A619B6903F001030193019BA208971CD1
:100CA000614B53F8273004F00307BF004FF00F0CDF
:100CB0000CFA07FC23EA0C0C5C4B98422AD003F593
:100CC0008063984200F08A8003F58063984200F0C8
:100CD000878003F5806398421AD004231BE0CD6817
:100CE000BDE7CD680435BAE7CD680835B7E7CD680C
:100CF0000C35B4E702610825B1E70025AFE704250C
:100D0000ADE700F1040CADE7A4F108029200ACE7F6
:100D1000032300E00023BB4043EA0C030232424FAE
:100D200047F822304B6813F4803F5BD0404A136889
:100D3000334313604B6813F4003F59D03C4A536867
:100D4000334353604B6813F4801F57D0384A93687D
:100D5000334393604B6813F4001F55D0344AD36873
:100D60001E43D66001340B6833FA04F252D00122DC
:100D7000A24003EA020632EA0303F3D14B68122BC6
:100D80003FF64DAF122B3FF66AAF01A757F823F09D
:100D9000470C0008DF0C0008E90C0008FB0C0008F9
:100DA0005F0C00085F0C00085F0C00085F0C000877
:100DB0005F0C00085F0C00085F0C00085F0C000867
:100DC0005F0C00085F0C00085F0C00085F0C000857
:100DD0005F0C0008E30C0008EF0C000801239AE701
:100DE000022398E7124A136823EA06031360A1E777
:100DF0000F4A536823EA06035360A3E70C4A93683B
:100E000023EA06039360A5E7094AD36823EA0606A6
:100E1000D660A7E702B0F0BC704700BF0000221008
:100E200000003110001002400000014000080140A5
:100E3000000401400AB10161704709040161704773
:100E4000074AD36823F4E0631B041B0C000200F480
:100E5000E060034343F0BF6343F40033D360704763
:100E600000ED00E030B4174BDB68C3F30223C3F19D
:100E70000704042C28BF04241D1D062D18D9033B8C
:100E80004FF0FF3505FA04F421EA0401994005FA10
:100E900003F322EA0303194300280BDB0901C9B25B
:100EA00000F1604000F5614080F8001330BC7047ED
:100EB0000023E5E700F00F000901C9B2024B195405
:100EC000F4E700BF00ED00E014ED00E00138B0F100
:100ED000807F0AD2064B5860064AF02182F8231020
:100EE0000020986007221A6070470120704700BFF9
:100EF00010E000E000ED00E0002800F0CC80F8B544
:100F0000044690F83D30002B77D0242384F83D3000
:100F10002268136823F0010313602268136843F406
:100F2000004313602268136823F400431360FFF743
:100F300051FE62685A4B9A4264D85A4B98428CBF11
:100F400000230123002B40F0A880574DA5FB00355E
:100F5000AF0C2668716821F03F0141EA954171604C
:100F600021680B6A23F03F0365684D4A95424FD8CC
:100F70007A1C13430B622568E96921F44F4121F083
:100F8000FF016368464A93424CD801385B00B0FBCE
:100F9000F3F0013040F6FC73184278D0C0F30B0335
:100FA0000B43EB6121680B6823F0C003E269206A00
:100FB000024313430B6021688B6823F4034323F03F
:100FC000FF032269E068024313438B602168CB680A
:100FD00023F0FF036269A06902431343CB602268D8
:100FE000136843F00103136000202064202384F879
:100FF0003D30206384F83E00F8BD80F83C30FFF7B8
:101000006DF982E7294B98428CBF0023012399E7B1
:101010004FF4967202FB07F2254DA5FB025292098E
:101020000132A6E7A268BAB9461E03EB4307B6FB36
:10103000F7F60136C6F30B06B6FA86F6760946BB16
:10104000C2B9421E03EB4303B2FBF3F20132C2F317
:101050000B0242F40043A3E7461E03EB830707EBB2
:101060008707B6FBF7F60136C6F30B06B6FA86F627
:101070007609E4E7421E03EB830303EB8303B2FB31
:10108000F3F20132C2F30B0242F4404388E7042337
:1010900086E7012384E7012070470120ACE700BF09
:1010A000A08601007F841E0083DE1B43FF083D00F5
:1010B000D34D6210002856D010B50446436A33B9A8
:1010C0004368B3F5827F05D00023C36102E00023AB
:1010D000036143610023A36294F85130002B3CD09C
:1010E000022384F851302268136823F04003136010
:1010F000636803F48273A26802F404421343E26853
:1011000002F400621343226902F00202134362698F
:1011100002F001021343A26902F400721343E26970
:1011200002F038021343226A02F080021343A26ADB
:1011300002F40052216813430B60638B226803F0B2
:10114000040353602268D36923F40063D361002051
:101150006065012384F8513010BD84F8503020467A
:10116000FFF710F9BCE701207047000010B50446F6
:101170000268136923F44053C1680B431361836809
:101180000269134342691A430168CB6823F4B053E0
:1011900023F00C031343CB600268536923F44073BC
:1011A00081690B4353610268124B9A421FD0FFF7CB
:1011B00011FD00EB800303EB830362689200B3FB35
:1011C000F2F20D48A0FB02314909642303FB11230D
:1011D0001B013233A0FB03235B0903F0F00202EB97
:1011E000011203F00F03216813448B6010BDFFF759
:1011F00001FDDEE7003801401F85EB5158B310B503
:10120000044690F83D300BB3242384F83D30226827
:10121000D36823F40053D3602046FFF7A7FF22686A
:10122000136923F4904313612268536923F02A035E
:1012300053612268D36843F40053D36000202064D4
:10124000202384F83D3084F83E3010BD80F83C30D7
:10125000FFF7EEF8D8E701207047704700F1080368
:1012600043604FF0FF328260C3600361002303607C
:10127000704700230361704743684B609A688A6037
:10128000516099600861036801330360704730B4AE
:101290000D68B5F1FF3F11D000F108031C465B68F3
:1012A0001A68AA42FAD963684B6099608C606160E1
:1012B000086103680133036030BC70470469F2E7DA
:1012C0000369416882688A60416851605A68824255
:1012D00006D0002202611A68013A1A601868704745
:1012E00082685A60F5E70000084B1B681B6823B949
:1012F000074B4FF0FF321A607047044B1B68DB68E6
:10130000DB685A68024B1A60704700BF84020020F5
:10131000580300202DE9F04707469846089DDDF860
:1013200024900A9C266B02F18042013A06EB820669
:1013300026F0070600220F2A07D8885CA31883F836
:1013400034008B5C0BB10132F5E7002384F84330A5
:10135000062D00D90625E56265644FF0000AC4F841
:1013600048A0201DFFF785FF04F11800FFF781FF5B
:101370002461C5F10705A5616462C4F84CA084F836
:1013800050A042463946304600F0ECFC2060B9F1EE
:10139000000F01D0C9F80040BDE8F08738B500243F
:1013A00007E004EB840293000E481844FFF756FF51
:1013B0000134062CF5D90C4D2846FFF74FFF0B4C96
:1013C0002046FFF74BFF0A48FFF748FF0948FFF7A1
:1013D00045FF0948FFF742FF084B1D60084B1C60A2
:1013E00038BD00BF8C0200203003002044030020E1
:1013F000600300208C03002078030020840200207A
:101400008802002010B5044600F0D4FC204A13687E
:10141000013313601F4B1B685BB11F4B1B686BB91B
:101420001C4B1B68DA6AE36A9A4207D8194B1C60A6
:1014300004E0184B1C601368012B26D0174A136870
:1014400001331360E06A01238340154A11680B439E
:10145000136000EB8000211D124B03EB8000FFF7AF
:101460000BFF00F0C9FC0C4B1B686BB1094B1B68F0
:10147000DA6AE36A9A4207D20B4B4FF080521A6045
:10148000BFF34F8FBFF36F8F10BDFFF787FFD5E717
:10149000180300208002002074030020280300208D
:1014A0002C0300208C02002004ED00E010B504465F
:1014B00090F8513063B1012B11D0022B0ED04FF0B8
:1014C000500383F31188BFF36F8FBFF34F8FFEE795
:1014D000006B00F0DFFB204600F0DCFB10BD00F0ED
:1014E000D9FBFBE70F4B1B68D3B110B500F062FCD2
:1014F0000D4BDB68DC68201DFFF7E2FE0B4A13682A
:10150000013B1360074A1368013B136000F074FC51
:101510002046FFF7CBFF034B1B68002BE6D110BD25
:10152000704700BF1C0300208C030020180300201C
:1015300008B5FFF7D7FF064B1B68012BF9D9054B00
:101540004FF080521A60BFF34F8FBFF36F8FF0E7F9
:101550008C02002004ED00E070B504460D461D4BE2
:101560001E681D4B18680430FFF7AAFE50B91A4BCD
:101570001B68DA6A012303FA02F218490B6823EAAE
:1015800002030B60B4F1FF3F0DD03444124B1B68D3
:101590005C60A64210D9124B18680F4B19680431D1
:1015A000FFF775FE70BD002DEFD00B4B19680431AD
:1015B0000C48FFF761FEF5E70B4B1868064B1968FE
:1015C0000431FFF764FE094B1B68A342EAD9074BBD
:1015D0001C60E7E7A0030020800200202C0300200D
:1015E0008802002078030020840200205803002095
:1015F00070B586B00B9D0C9C75B1B4B154260496A1
:10160000049E542E1AD04FF0500383F31188BFF379
:101610006F8FBFF34F8FFEE74FF0500383F31188B6
:10162000BFF36F8FBFF34F8FFEE74FF0500383F38D
:101630001188BFF36F8FBFF34F8FFEE7256302253D
:1016400084F8515000250395029405AD01950A9D3B
:101650000095FFF75FFE2046FFF7D4FE059806B021
:1016600070BD2DE9F04385B00746884614461E46F6
:10167000900000F097FA00B38146542000F092FAEF
:101680000546B0B1C0F83090E5B1002385F851307F
:10169000039302950D9B01930C9B009333462246C6
:1016A00041463846FFF736FE2846FFF7ABFE0120DD
:1016B00005E0484600F0EEFAE6E74FF0FF3005B0EF
:1016C000BDE8F0834FF0FF30F9E7000010B588B0B7
:1016D00000240594069407AA06A905A8FEF7BEFDF6
:1016E000059B0293069B019300942346079A0D499C
:1016F0000D48FFF77DFF90B14FF0500383F3118841
:10170000BFF36F8FBFF34F8F084B4FF0FF321A605C
:10171000074B01221A60074B1C6000F0DDFB08B08C
:1017200010BD00BF902000083115000858030020AC
:1017300074030020A0030020024A136801331360E1
:10174000704700BF24030020F8B53A4B1B68002BFC
:1017500064D1394B1D6801351D60C5B9374B1B6815
:101760001B6843B14FF0500383F31188BFF36F8FB1
:10177000BFF34F8FFEE7314A1168314B1868106094
:101780001960304A136801331360FFF7ADFD2E4B2B
:101790001B68AB4238D900242C4B1B68DB6A03EB77
:1017A00083039A002A4B9B58012B3CD901243AE031
:1017B0000124224B1B681B6843B3204B1B68DB686A
:1017C000DE6873689D4226D3371D3846FFF778FDE3
:1017D000B36A1BB106F11800FFF772FDF36A01222C
:1017E0009A401C49086802430A6003EB83039A008D
:1017F000394617481044FFF73FFDF26A134B1B6848
:10180000DB6A9A42D4D2D4E70024D2E70E4B4FF0E1
:10181000FF321A60C0E70C4A1360BDE70E4A136836
:101820000133136000240D4B1B6803B101242046D3
:10183000F8BD00BF24030020A00300208402002084
:10184000880200205C030020580300208002002052
:101850008C0200202C03002020030020A403002081
:1018600038B5344B1B6843B94FF0500383F31188EC
:10187000BFF36F8FBFF34F8FFEE700F09BFA2D4B46
:101880001A68013A1A601B68002B4DD12A4B1B685D
:101890000BB9002449E00024284B1B681BB3274BDD
:1018A000DB68DC6804F11800FFF70AFD251D2846F7
:1018B000FFF706FDE06A01238340214A11680B43CC
:1018C000136000EB800029461E4B03EB8000FFF7FE
:1018D000D3FCE26A1C4B1B68DB6A9A42DCD31B4BCD
:1018E00001221A60D8E70CB1FFF7FEFC184B1C6808
:1018F00074B9164B1C68C4B1164B4FF080521A6075
:10190000BFF34F8FBFF36F8F01240EE0013C07D070
:10191000FFF71AFF0028F9D00C4B01221A60F5E7F7
:101920000B4B00221A60E4E7002400F065FA204621
:1019300038BD00BF240300201803002060030020EE
:101940002C0300208C02002080020020A403002031
:101950002003002004ED00E010B5A8B104460F4BB1
:101960001B6843B14FF0500383F31188BFF36F8FAF
:10197000BFF34F8FFEE7FFF7DFFE00212046FFF7A2
:10198000EBFDFFF76DFF38B9054B4FF080521A6041
:10199000BFF34F8FBFF36F8F10BD00BF2403002034
:1019A00004ED00E0204B1B681BB1204B01221A60A4
:1019B00070471E4B00221A601D4B1B68B3FA83F35D
:1019C000DBB2C3F11F0303EB83018A0019498A5874
:1019D00042B94FF0500383F31188BFF36F8FBFF309
:1019E0004F8FFEE710B4134903EB830082000A44D3
:1019F00050684068506003EB8304A200144608322C
:101A0000114488420AD003EB83039A00094B134424
:101A10005B68DA68084B1A6010BC70474068054A7A
:101A200022445060EFE700BF24030020A4030020FD
:101A30002C0300208C02002080020020054B1B6834
:101A400033B1054B1B680BB1002070470220704773
:101A5000012070477403002024030020842801D053
:101A6000033070470020704708B5FFF72FFE0020B5
:101A700008BD2DE9F04387B004460F464569BDB166
:101A80008669AEB1D0F80480D0F80090B0F90800B3
:101A9000FFF7E4FF0296019500903B462269494614
:101AA0004046FFF7A5FD0590059807B0BDE8F08317
:101AB00065682668D4F81080B4F90800FFF7CEFFF7
:101AC00005AB019300903B461FFA88F23146284649
:101AD000FFF7C7FD0128E7D00020E6E708B500B909
:101AE0000120FFF739FF002008BD0000124A12F064
:101AF000070F1ED0D11D21F00701C1F5406313442B
:101B00000A460E480260002141601344083B23F05E
:101B100007030B48036059601960991A51601360FC
:101B2000084B1960084B1960084B4FF000421A60CF
:101B300070474FF44063E4E7AC030020B80F002087
:101B4000A8030020B40F0020B00F0020AC0F00202D
:101B500010B4124B1A461B688342FBD351685418C9
:101B6000844209D041684418A3420AD003609042DD
:101B700000D0106010BC70474068014451601046AE
:101B8000F0E7074C2468A34206D05B681944416023
:101B900013681B680360EAE70460E8E7B80F0020F9
:101BA000A803002070B50446FFF7C6FD344B1B6840
:101BB000A3B1344B1B681C424AD134B1083414F031
:101BC000070F02D024F007040834002C42D02E4B1B
:101BD0001B68A3424DD32D4B1D6804E0FFF786FF21
:101BE000E7E72B4615466A68A24202D22A68002A15
:101BF000F7D1234A1268AA423DD01E6808362A68E7
:101C00001A606B681B1B102B10D9281910F0070FD6
:101C100008D04FF0500383F31188BFF36F8FBFF3E9
:101C20004F8FFEE743606C60FFF792FF6A681649CA
:101C30000B689B1A0B60164909688B4201D2144944
:101C40000B60104B1B6813436B6000232B6002E09A
:101C5000002600E00026FFF703FE16F0070F0CD069
:101C60004FF0500383F31188BFF36F8FBFF34F8F93
:101C7000FEE70026EFE70026EDE7304670BD00BF27
:101C8000A8030020AC0F0020B00F0020B80F0020E8
:101C9000B40F002080B338B50446A0F1080550F811
:101CA000043C164A1268134208D14FF0500383F3E4
:101CB0001188BFF36F8FBFF34F8FFEE750F8081CFA
:101CC00041B14FF0500383F31188BFF36F8FBFF31F
:101CD0004F8FFEE723EA020340F8043CFFF72CFD98
:101CE00054F8041C064A13680B4413602846FFF797
:101CF0002FFFFFF7B5FD38BD704700BFAC0F0020C8
:101D0000B00F002082B0002301930D4B1B68B3F18C
:101D1000FF3F08D04FF0500383F31188BFF36F8F5C
:101D2000BFF34F8FFEE74FF0500383F31188BFF3EB
:101D30006F8FBFF34F8F019B002BFCD002B0704719
:101D40000C00002006480068006880F3088862B62E
:101D500061B6BFF34F8FBFF36F8F00DF00BF00008E
:101D600008ED00E04FF0807340F8043C21F00101E1
:101D700040F8081C034B40F80C3C40F8202C40383D
:101D8000704700BF051D00080000000000000000B3
:101D9000074B19680868B0E8F00F80F30988BFF3B3
:101DA0006F8F4FF0000080F311884EF00D0E7047DA
:101DB000800200204FF0500383F31188BFF36F8F30
:101DC000BFF34F8F0A4A136801331360012B00D011
:101DD0007047084B1B6813F0FF0FF9D04FF050030A
:101DE00083F31188BFF36F8FBFF34F8FFEE700BF00
:101DF0000C00002004ED00E0094B1B6843B94FF0D4
:101E0000500383F31188BFF36F8FBFF34F8FFEE74B
:101E1000013B034A13600BB983F31188704700BF7D
:101E20000C00002000000000000000000000000086
:101E3000EFF30980BFF36F8F0D4B1A6820E9F00FA5
:101E400010602DE908404FF0500080F31188FFF733
:101E5000A9FD4FF0000080F31188BDE80840196823
:101E60000868B0E8F00F80F30988BFF36F8F704700
:101E70008002002008B54FF0500383F31188BFF3B0
:101E80006F8FBFF34F8FFFF75FFC18B1034B4FF01D
:101E900080521A60002383F3118808BD04ED00E02E
:101EA000084A0023136008490B60084B1B68084967
:101EB000A1FB03139B09013B06490B600723136039
:101EC000704700BF10E000E018E000E008000020CC
:101ED000D34D621014E000E010B582B0274B1A78A1
:101EE000D2B20192FF221A701B78DBB28DF8033058
:101EF0009DF8033003F05003214A1370214B072251
:101F00001A609DF8033013F0800F0AD01D4A136841
:101F1000013B13609DF803305B00DBB28DF80330AA
:101F2000EFE7184B1B68032B08D04FF0500383F3E7
:101F30001188BFF36F8FBFF34F8FFEE71B0203F4CF
:101F4000E063104A1360019BDBB20C4A13700E4B26
:101F50001A6842F470021A601A6842F070421A60FD
:101F6000FFF79EFF0024094B1C60FFF7EBFEFFF715
:101F700019FDFFF7C7FE204602B010BD00E400E0E7
:101F8000C00F0020C40F002020ED00E00C00002056
:101F90000C480D490D4A002302E0D458C4500433C4
:101FA000C4188C42F9D30A4A0A4C002301E013609A
:101FB0000432A242FBD3FFF750F900F00FF8FEF70E
:101FC000FAF870470000002010000020A020000850
:101FD00010000020C0100020FEE7000070B50026B1
:101FE0000C4D0D4C641BA410A64209D100F01AF848
:101FF00000260A4D0A4C641BA410A64205D170BDF0
:1020000055F8043B98470136EEE755F8043B9847EE
:102010000136F2E798200008982000089820000870
:102020009C200008F8B500BFF8BC08BC9E4670476D
:0C203000F8B500BFF8BC08BC9E46704725
:10203C0058200008510200080000000000000000B9
:10204C008000000000000000000000006465666174
:10205C00756C745461736B00020304050607080960
:10206C000A0B0C0D0E0F10100000000000000000F9
:10207C00000000000102030406070809000000002C
:0C208C000102030449444C450000000020
:042098003501000806
:04209C001101000826
:1020A00001000000100000000024F400AAAAAAAA5F
:0400000508001F913F
:00000001FF
